:100000000C94B1000C94CE000C94CE000C94CE0055
:100010000C94CE000C94CE000C94CE000C94CE0028
:100020000C94CE000C94CE000C94CE000C94CE0018
:100030000C94CE000C94CE000C94CE000C94CE0008
:100040000C94CE000C94CE000C94CE000C94CE00F8
:100050000C94CE000C94CE000C94CE000C94CE00E8
:100060000C94CE000C94CE0000407A10F35A00A0FD
:10007000724E18090010A5D4E80000E87648170071
:1000800000E40B54020000CA9A3B000000E1F505B1
:10009000000080969800000040420F000000A086FB
:1000A00001000000102700000000E803000000002D
:1000B0006400000000000A000000000001000000D1
:1000C00000002C76D888DC674F0823DFC1DFAE59EB
:1000D000E1B1B796E5E3E453C63AE651997696E87E
:1000E000E6C28426EB898C9B62ED407C6FFCEFBC02
:1000F0009C9F40F2BAA56FA5F490055A2AF75C932D
:100100006B6CF9676DC11BFCE0E40D47FEF520E662
:10011000B500D0ED902E0300943577050080841E45
:10012000080000204E0A000000C80C333333330FA0
:10013000986E12831141EF8D2114893BE65516CF3D
:10014000FEE6DB18D1844B381BF77C1D901DA4BB49
:10015000E424203284725E228100C9F124ECA1E5FE
:100160003D2711241FBECFEFD8E0DEBFCDBF11E089
:10017000A0E0B1E0EEE4FBE002C005900D92AE3BE2
:10018000B107D9F721E0AEEBB1E001C01D92A63C6A
:10019000B207E1F70E9411010C94A5050C94000030
:1001A000E0ECF0E0908195FFFDCF8093C60080E009
:1001B00090E008951092C50083E38093C400E1ECC1
:1001C000F0E0808188618083E2ECF0E080818660ED
:1001D00080830895ECE7F0E0108280818064808362
:1001E000EAE7F0E080818068808380818760808397
:1001F00010927B000895CF93DF93FC01208122238E
:1002000069F0DC011196E0ECF0E0C6ECD0E0908102
:1002100095FFFDCF28832D912111F9CFDF91CF914B
:100220000895CF93DF93CDB7DEB729970FB6F89433
:10023000DEBF0FBECDBF88EA91E09093C3018093EB
:10024000C2010E94DA000E94EA002FEF82E597E0E7
:10025000215080409040E1F700C0000086EB91E023
:100260000E940C03EFEFF3ED20E3E150F04020405B
:10027000E1F700C000008AE991E00E94FB008FEFE7
:1002800093EDE0E381509040E040E1F700C00000D2
:1002900085E891E00E94FB00FFEF2FE483ECF15032
:1002A00020408040E1F700C0000087E791E00E9415
:1002B000FB009FEFEBE7F2E99150E040F040E1F7FF
:1002C00000C000000F2EFAE7EF2EF12CF02D0F2EBC
:1002D000F8E7CF2ED12CF02DF70180818064808348
:1002E000F701808184FFFCCF808180618083F601EB
:1002F000608171818091BE019091BF01039709F0E7
:1003000066C01092BF011092BE01FFEF29E688E19E
:10031000F15020408040E1F700C00000737080E0A1
:1003200090E00E94F10120E030E040EA50E40E94B9
:100330002E0220E030E040E85AE30E942E0220E046
:1003400030E048EC52E40E942E028E010F5F1F4FF6
:1003500021E043E00E94EC0289E491E00E94FB006E
:100360009FEFE3EDF0E39150E040F040E1F700C093
:10037000000087E391E00E94FB002FEF87EA91E6FF
:10038000215080409040E1F700C000008EE091E0F5
:100390000E94FB00C8010E94FB008AEB91E00E94D2
:1003A000FB00EFEFF3ED20E3E150F0402040E1F7F8
:1003B00000C0000080E091E00E94FB008FEF99E612
:1003C000E8E181509040E040E1F700C000008091FA
:1003D000BE019091BF0101969093BF018093BE0131
:1003E0007BCFE89409C097FB3EF49095809570957B
:1003F00061957F4F8F4F9F4F9923A9F0F92F96E971
:10040000BB279395F695879577956795B795F111E5
:10041000F8CFFAF4BB0F11F460FF1BC06F5F7F4F82
:100420008F4F9F4F16C0882311F096E911C0772394
:1004300021F09EE8872F762F05C0662371F096E89D
:10044000862F70E060E02AF09A95660F771F881F6C
:10045000DAF7880F9695879597F908950E944102DB
:100460000C94B2020E94A40238F00E94AB0220F069
:10047000952311F00C949B020C94A10211240C946E
:10048000E6020E94C30270F3959FC1F3950F50E0FE
:10049000551F629FF001729FBB27F00DB11D639F36
:1004A000AA27F00DB11DAA1F649F6627B00DA11DDC
:1004B000661F829F2227B00DA11D621F739FB00D82
:1004C000A11D621F839FA00D611D221F749F3327F2
:1004D000A00D611D231F849F600D211D822F762F8B
:1004E0006A2F11249F5750409AF0F1F088234AF068
:1004F000EE0FFF1FBB1F661F771F881F91505040D4
:10050000A9F79E3F510580F00C949B020C94E602E3
:100510005F3FE4F3983ED4F3869577956795B7955A
:10052000F795E7959F5FC1F7FE2B880F911D969574
:10053000879597F9089597F99F6780E870E060E0E4
:1005400008959FEF80EC089500240A94161617066C
:1005500018060906089500240A94121613061406B4
:1005600005060895092E0394000C11F4882352F017
:10057000BB0F40F4BF2B11F460FF04C06F5F7F4FCF
:100580008F4F9F4F089557FD9058440F551F59F0B6
:100590005F3F71F04795880F97FB991F61F09F3F70
:1005A00079F087950895121613061406551FF2CF99
:1005B0004695F1DF08C0161617061806991FF1CFE9
:1005C00086957105610508940895E894BB27662710
:1005D0007727CB0197F90895EF920F931F93CF934D
:1005E000DF93E80147FD02C034E001C034E1042E8E
:1005F000000C550B57FF03C0519541955109E32E4F
:10060000022F242FAE010E943C03CE01DF91CF9137
:100610001F910F91EF9008950F931F93CF93DF9346
:10062000E091C201F091C301238121FF1BC08C0125
:10063000D0E0C0E0F80181918F016091C20170911A
:10064000C301DB011896ED91FC911997882331F0D5
:100650000995892B79F3DFEFCFEFECCF8AE009958D
:10066000892B19F08FEF9FEF02C08D2F9C2FDF9108
:10067000CF911F910F910895A9E0B0E0E2E4F3E07B
:100680000C9474056A01122FB02E2BE3201720F072
:10069000FF24F394F00E02C02CE3F22E0F2D27E07E
:1006A000AE014F5F5F4F0E949604BC014981842FC9
:1006B0008970813031F0E1FC06C0E0FE06C090E2B6
:1006C00005C09DE203C09BE201C090E05E2D507129
:1006D00043FF3CC0911102C083E001C084E0811758
:1006E00018F4212F281B01C020E051110BC0F60186
:1006F000822F30E2882319F031938150FBCFC20E54
:10070000D11C20E0992329F0D6019C93F601319663
:100710006F01C6010396E2FE0AC03EE4D6013C9397
:1007200041E411964C93119712963C9306C03EE615
:10073000F601308341E641833283FC01322F40E2EF
:10074000332309F442C041933150FACF42FF44C0F1
:10075000911102C083E001C084E0811718F4212FB9
:10076000281B01C020E051110BC0F601822F30E29E
:10077000882319F031938150FBCFC20ED11C20E0A9
:10078000992329F0D6019C93F60131966F01C60199
:100790000396E2FE0BC039E4D6013C933EE4119689
:1007A0003C93119736E412963C9307C039E6F60164
:1007B00030833EE6318336E63283FC01322F40E25D
:1007C000332319F041933150FBCFFC01E20FF11DAF
:1007D00010828EEF9FEFA6C021E030E0911102C0A1
:1007E00020E030E0161617061CF4FB01319602C01B
:1007F000E1E0F0E02E0F3F1FBB2021F0EB2DF0E0F9
:10080000319602C0E0E0F0E02E0F3F1FE12FF0E054
:100810002E173F071CF4121B212F01C020E08E2D44
:10082000887159F4F601822F30E2882319F0319350
:100830008150FBCFC20ED11C20E0992329F0D601B4
:100840009C93F60131966F0151110BC0F601822F76
:1008500090E3882319F091938150FBCFC20ED11CF5
:1008600020E00F2D060F9A81342F307144FF03C012
:10087000913309F40150101624F4093018F008E0FF
:1008800001C001E0AB0177FF02C040E050E0FB0196
:10089000E41BF50BA1E0B0E0AC0FBD1FEA0FFB1F9E
:1008A0008EE2A82E4B01801A91080B2D10E01195B5
:1008B000019511094F3FBFEF5B0721F4D601AC92C0
:1008C00011966D01641775072CF08416950614F4C3
:1008D000818101C080E3415051093196D6011196C2
:1008E0007D014017510724F0D6018C936701E2CFB8
:1008F0006417750739F4963320F4953319F43111E0
:1009000001C081E3F6018083F701822F90E2882302
:1009100019F091938150FBCFF701E20FF11D108286
:1009200080E090E02996ECE00C949005283008F0E7
:1009300027E03327DA01990F311D87FD916000967A
:100940006105710539F432602E5F3D9330E32A95DD
:10095000E1F708959F3F30F080387105610509F097
:100960003C5F3C5F3D93913008F08068911DDF93C0
:10097000CF931F930F93FF92EF92192F987F969525
:10098000E92F96959695E90FFF27EE53FF4F99278C
:100990003327EE24FF24A701E7010590089407946C
:1009A00028F4360FE71EF81E491F511D660F771FEA
:1009B000881F991F0694A1F70590079428F4E70E65
:1009C000F81E491F561FC11D770F881F991F661FEC
:1009D0000694A1F70590079428F4F80E491F561FB6
:1009E000C71FD11D880F991F661F771F0694A1F797
:1009F0000590079420F4490F561FC71FD81F990F61
:100A0000661F771F881F0694A9F7849110951770A9
:100A100041F0D695C79557954795F794E7941A9561
:100A2000C1F7E8E6F0E0689415901591359165916D
:100A3000959105907FE27395E118F10A430B560BEF
:100A4000C90BD009C0F7E10CF11E431F561FC91F87
:100A5000D01D7EF4703311F48A95E6CFE8940150EE
:100A600030F0080F0AF40027021708F4202F23950E
:100A7000022F7A3328F079E37D932A95E9F710C0A5
:100A80007D932A9589F606949795679537951795DE
:100A90001794E118F10A430B560BC90BD00998F0D3
:100AA00023957E9173957A3308F070E37C9320133D
:100AB000B8F77E9170617D9330F0839571E37D93FB
:100AC00070E32A95E1F71124EF90FF900F911F91A9
:100AD000CF91DF91992787FD909508952F923F92AE
:100AE0004F925F926F927F928F929F92AF92BF923E
:100AF000CF92DF92EF92FF920F931F93CF93DF93EA
:100B0000CDB7DEB7CA1BDB0B0FB6F894DEBF0FBE46
:100B1000CDBF09942A88398848885F846E847D8493
:100B20008C849B84AA84B984C884DF80EE80FD8095
:100B30000C811B81AA81B981CE0FD11D0FB6F8940B
:0E0B4000DEBF0FBECDBFED010895F894FFCFCC
:100B4E0041542B434950434C4F53450D0A004745E2
:100B5E0054202F7570646174653F6B65793D534603
:100B6E004D534E4C544A574E44483559364C2666D2
:100B7E0069656C64313D0041542B43495053454ED9
:100B8E00443D302C34380D0A0041542B4349505308
:100B9E00544152543D302C22544350222C22617029
:100BAE00692E7468696E67737065616B2E636F6D05
:100BBE00222C38300D0A0041542B4349504D5558C4
:100BCE003D310D0A0041542B43574A41503D2254AA
:100BDE00455354222C22220D0A0041542B43574DCB
:100BEE004F44453D310D0A00000000020000000098
:0E0BFE00D0000000000041540D000D0A000060
:00000001FF
